:1000000012C02CC02BC02AC029C028C027C026C0BF
:1000100025C024C023C022C021C020C01FC01EC0D4
:100020001DC01CC01BC011241FBECFE5D4E0DEBF25
:10003000CDBF10E0A0E6B0E0EAE3F9E102C0059030
:100040000D92A438B107D9F720E0A4E8B0E001C0D0
:100050001D92AA38B207E1F742D06DCCD1CF87B359
:100060008F6287BB089587B3896287BB81E58DB9AD
:100070000895882311F0C19A01C0C1986FB9779B88
:10008000FECF0895CF93DF93EC01605580E0F1DF60
:100090006C2F6F7080E0EDDF84E0D595C7958A9571
:1000A000E1F7CF7060E16C0F80E0DF91CF91E1CF9D
:1000B0001F93CF93DF93C0E0D0E0BE0180E090E0DB
:1000C000E1DF14E560E081E0D4DF1150D9F721963B
:1000D000C630D10591F7DF91CF911F910895CF924E
:1000E000DF92EF92FF920F931F93CF93DF93CDB7E1
:1000F000DEB7C056D3400FB6F894DEBF0FBECDBFFB
:1001000088EF87BBACDF2FEF37EA81E62150304024
:100110008040E1F700C00000CBDF63E070E08AE0E0
:1001200090E0B0DF80E690E09F938F9338D964E051
:1001300070E08AE090E0A6DF8CE690E09F938F93DA
:100140002ED965E070E08AE090E09CDF87E790E0E0
:100150009F938F9324D966E070E08AE090E092DF6D
:100160008FE790E09F938F931AD99FEFA3E2B4EFAC
:100170009150A040B040E1F700C0000099DFFE01BF
:10018000319680E693E0DF019C011D9221503040C2
:10019000E1F73FEF39833A839FE19B835FE05C8324
:1001A00047E04D8377EC7E834F83588799872FE311
:1001B0002A872B872C872D872E872F87288B998B33
:1001C0005A8B4B8B63E06C8B9D8B8FE78E8B3F8BB9
:1001D000388F398F8A8F9B8F9C8F2D8F8E8F8F8F2B
:1001E00088A389A32AA39BA35CA34DA36EA39FA36B
:1001F00088A739A73AA73BA78CA79DA79EA72FA79B
:1002000088AB89AB8AAB8BAB2CAB9DAB5EAB4FABFA
:1002100068AFA2963FAFA297A3963FAFA397A496CD
:100220009FAFA497A5965FAFA597A6964FAFA69749
:10023000A7967FAFA797A8964FAFA897A9965FAF4D
:10024000A997AA969FAFAA97AB962FAFAB97AC96FC
:100250002FAFAC97AD962FAFAD97AE962FAFAE97B1
:10026000AF962FAFAF97E0962FAFE097E1962FAF05
:10027000E197E2969FAFE297E3965FAFE397E4964C
:100280004FAFE497E5966FAFE597E6969FAFE69799
:10029000E7968FAFE797E8963FAFE897E9963FAFCD
:1002A000E997EA963FAFEA97EB968FAFEB97EC961C
:1002B0009FAFEC97ED969FAFED97EE962FAFEE9731
:1002C000EF968FAFEF97C158DF4F8883CF57D0405D
:1002D000C058DF4F8883C058D040CF57DF4F888346
:1002E000C158D040CE57DF4F2883C258D040CD5799
:1002F000DF4F9883C358D040CC57DF4F5883C45842
:10030000D040CB57DF4F4883C558D040CA57DF4F46
:100310006883C658D040C957DF4F9883C758D0402C
:10032000C857DF4F8883C858D040C757DF4F38833E
:10033000C958D040C657DF4F3883CA58D040C55738
:10034000DF4F3883CB58D040C457DF4F8883CC5819
:10035000D040C357DF4F9883CD58D040C257DF4FAE
:100360009883CE58D040C157DF4F2883CF58D04014
:10037000C057DF4F8883C059D040CF56DF4F8883A6
:10038000C159D040CE56DF4F8883C259D040CD5698
:10039000DF4F8883C359D040CC56DF4F2883C459E0
:1003A000D040CB56DF4F9883C559D040CA56DF4F57
:1003B0005883C659D040C956DF4F4883C759D040EB
:1003C000C856DF4F6883C859D040CF53DF4F3883BA
:1003D000C15CD040CE53DF4F3883C25CD040CD5398
:1003E000DF4F9883C35CD040CC53DF4F5883C45C4D
:1003F000D040CB53DF4F4883C55CD040CA53DF4F5A
:100400007883C65CD040C953DF4F4883C75CD04077
:10041000C853DF4F5883C85CD040C753DF4F988321
:10042000C95CD040C653DF4F2883CA5CD040C55357
:10043000DF4F2883CB5CD040C453DF4F2883CC5C94
:10044000D040C353DF4F2883CD5CD040C253DF4F31
:100450002883CE5CD040C153DF4F2883CF5CD0408F
:10046000C053DF4F2883C05DD040CF52DF4F988309
:10047000C15DD040CE52DF4F5883C25DD040CD52D7
:10048000DF4F4883C35DD040CC52DF4F6883C45DEB
:10049000D040CB52DF4F9883C55DD040CA52DF4F6A
:1004A0008883C65DD040C952DF4F3883C75DD040D6
:1004B000C852DF4F3883C85DD040C752DF4F388302
:1004C000C95DD040C652DF4F8883CA5DD040C55257
:1004D000DF4F9883CB5DD040C452DF4F9883CC5D13
:1004E000D040C352DF4F2883CD5DD040C252DF4F92
:1004F0008883CE5DD040C152DF4F8883CF5DD0402E
:10050000C052DF4F8883C05ED040CF51DF4F888319
:10051000C15ED040CE51DF4F2883C25ED040CD5166
:10052000DF4F9883C35ED040CC51DF4F5883C45E09
:10053000D040CB51DF4F4883C55ED040CA51DF4F1A
:100540006883C65ED040C951DF4F9883C75ED040F4
:10055000C851DF4F8883C85ED040C751DF4F388312
:10056000C95ED040C651DF4F3883CA5ED040C55106
:10057000DF4F3883CB5ED040C451DF4F8883CC5EE1
:10058000D040C351DF4F9883CD5ED040C251DF4F82
:100590009883CE5ED040C151DF4F2883CF5ED040DC
:1005A000C051DF4F8883C05FD040CF50DF4F88837A
:1005B000C15FD040CE50DF4F8883C25FD040CD5066
:1005C000DF4F8883C35FD040CC50DF4F2883C45FA8
:1005D000D040CB50DF4F9883C55FD040CA50DF4F2B
:1005E0005883C65FD040C950DF4F4883C75FD040B3
:1005F000C850DF4F6883C85FD040CF5DDE4F38837F
:10060000C152D140CE5DDE4F3883C252D140CD5D64
:10061000DE4F9883C352D140CC5DDE4F5883C45225
:10062000D140CB5DDE4F4883C552D140CA5DDE4F1D
:100630007883C652D140C95DDE4F4883C752D1404E
:10064000C85DDE4F5883C852D140C75DDE4F9883E6
:10065000C952D140C65DDE4F2883CA52D140C55D24
:10066000DE4F2883CB52D140C45DDE4F2883CC526D
:10067000D140C35DDE4F2883CD52D140C25DDE4FF5
:100680002883CE52D140C15DDE4F2883CF52D14066
:10069000C05DDE4F2883C053D140CF5CDE4F9883CE
:1006A000C153D140CE5CDE4F5883C253D140CD5CA4
:1006B000DE4F4883C353D140CC5CDE4F6883C453C4
:1006C000D140CB5CDE4F9883C553D140CA5CDE4F2E
:1006D0008883C653D140C95CDE4F3883C753D140AD
:1006E000C85CDE4F3883C853D140C75CDE4F3883C7
:1006F000C953D140C65CDE4F8883CA53D140C55C24
:10070000DE4F9883CB53D140C45CDE4F9883CC53EB
:10071000D140C35CDE4F2883CD53D140C25CDE4F55
:100720008883CE53D140C15CDE4F8883CF53D14004
:10073000C05CDE4F8883C054D140CF5BDE4F8883DE
:10074000C154D140CE5BDE4F2883C254D140CD5B33
:10075000DE4F9883C354D140CC5BDE4F5883C454E2
:10076000D140CB5BDE4F4883C554D140CA5BDE4FDE
:100770006883C654D140C95BDE4F9883C754D140CB
:10078000C85BDE4F8883C854D140C75BDE4F3883D7
:10079000C954D140C65BDE4F3883CA54D140C55BD3
:1007A000DE4F3883CB54D140C45BDE4F8883CC54BA
:1007B000D140C35BDE4F9883CD54D140C25BDE4F46
:1007C0009883CE54D140C15BDE4F2883CF54D140B3
:1007D000C05BDE4F8883C055D140CF5ADE4F88833F
:1007E000C155D140CE5ADE4F8883C255D140CD5A33
:1007F000DE4F8883C355D140CC5ADE4F2883C45581
:10080000D140CB5ADE4F9883C555D140CA5ADE4FEE
:100810005883C655D140C95ADE4F4883C755D14089
:10082000C85ADE4F6883C855D140CF57DE4F388352
:10083000C158D140CE57DE4F3883C258D140CD5732
:10084000DE4F9883C358D140CC57DE4F5883C458ED
:10085000D140CB57DE4F4883C558D140CA57DE4FF1
:100860007883C658D140C957DE4F4883C758D14016
:10087000C857DE4F5883C858D140C757DE4F9883BA
:10088000C958D140C657DE4F2883CA58D140C557F2
:10089000DE4F2883CB58D140C457DE4F2883CC5835
:1008A000D140C357DE4F2883CD58D140C257DE4FC9
:1008B0002883CE58D140C157DE4F2883CF58D1402E
:1008C000C057DE4F2883C059D140CF56DE4F9883A2
:1008D000C159D140CE56DE4F5883C259D140CD5672
:1008E000DE4F4883C359D140CC56DE4F6883C4598C
:1008F000D140CB56DE4F9883C559D140CA56DE4F02
:100900008883C659D140C956DE4F3883C759D14074
:10091000C856DE4F3883C859D140C756DE4F38839A
:10092000C959D140C656DE4F8883CA59D140C556F1
:10093000DE4F9883CB59D140C456DE4F9883CC59B3
:10094000D140C356DE4F2883CD59D140C256DE4F29
:100950008883CE59D140C156DE4F8883CF59D140CC
:10096000C056DE4F8883C05AD140CF55DE4F8883B2
:10097000C15AD140CE55DE4F2883C25AD140CD5501
:10098000DE4F9883C35AD140CC55DE4F5883C45AAA
:10099000D140CB55DE4F4883C55AD140CA55DE4FB2
:1009A0006883C65AD140C955DE4F9883C75AD14093
:1009B000C855DE4F8883C85AD140C755DE4F3883AB
:1009C000C95AD140C655DE4F3883CA5AD140C555A1
:1009D000DE4F3883CB5AD140C455DE4F8883CC5A82
:1009E000D140C355DE4F9883CD5AD140C255DE4F1A
:1009F0009883CE5AD140C155DE4F2883CF5AD1407B
:100A0000C055DE4F8883C05BD140CF54DE4F888312
:100A1000C15BD140CE54DE4F8883C25BD140CD5400
:100A2000DE4F8883C35BD140CC54DE4F2883C45B48
:100A3000D140CB54DE4F9883C55BD140CA54DE4FC2
:100A40005883C65BD140C954DE4F4883C75BD14051
:100A5000C854DE4F6883C85BD140CF51DE4F388326
:100A6000C15ED140CE51DE4F3883C25ED140CD5100
:100A7000DE4F9883C35ED140CC51DE4F5883C45EB5
:100A8000D140CB51DE4F4883C55ED140CA51DE4FC5
:100A90007883C65ED140C951DE4F4883C75ED140DE
:100AA000C851DE4F5883C85ED140C751DE4F98838E
:100AB000C95ED140C651DE4F2883CA5ED140C551C0
:100AC000DE4F2883CB5ED140C451DE4F2883CC5EFD
:100AD000D140C351DE4F2883CD5ED140C251DE4F9D
:100AE0002883CE5ED140C151DE4F2883CF5ED140F6
:100AF000C051DE4F2883C05FD140CF50DE4F988376
:100B0000C15FD140CE50DE4F5883C25FD140CD503F
:100B1000DE4F4883C35FD140CC50DE4F6883C45F53
:100B2000D140CB50DE4F9883C55FD140CA50DE4FD5
:100B30008883C65FD140C950DE4F3883C75FD1403C
:100B4000C850DE4F3883C85FD140C750DE4F38836E
:100B5000C95FD140C650DE4F8883CA5FD140C550BF
:100B6000DE4F9883CB5FD140C450DE4F9883CC5F7B
:100B7000D140C350DE4F2883CD5FD140C250DE4FFD
:100B80008883CE5FD140C150DE4F8883CF5FD14094
:100B9000C050DE4F8883C050D240CF5FDD4F888386
:100BA000C150D240CE5FDD4F2883C250D240CD5FCE
:100BB000DD4F9883C350D240CC5FDD4F5883C45083
:100BC000D240CB5FDD4F4883C550D240CA5FDD4F76
:100BD0006883C650D240C95FDD4F9883C750D2406A
:100BE000C85FDD4F8883C850D240C75FDD4F388370
:100BF000C950D240C65FDD4F3883CA50D240C55F6E
:100C0000DD4F3883CB50D240C45FDD4F8883CC505A
:100C1000D240C35FDD4F9883CD50D240C25FDD4FDD
:100C20009883CE50D240C15FDD4F2883CF50D24051
:100C3000C05FDD4F8883C051D240CF5EDD4F8883D7
:100C4000C151D240CE5EDD4F8883C251D240CD5ECD
:100C5000DD4F8883C351D240CC5EDD4F2883C45121
:100C6000D240CB5EDD4F9883C551D240CA5EDD4F86
:100C70005883C651D240C95EDD4F4883C751D24028
:100C8000C85EDD4F6883C851D240CF5BDD4F3883EB
:100C9000C154D240CE5BDD4F3883C254D240CD5BCD
:100CA000DD4F9883C354D240CC5BDD4F5883C4548E
:100CB000D240CB5BDD4F4883C554D240CA5BDD4F89
:100CC0007883C654D240C95BDD4F4883C754D240B5
:100CD000C85BDD4F5883C854D240C75BDD4F988353
:100CE000C954D240C65BDD4F2883CA54D240C55B8D
:100CF000DD4F2883CB54D240C45BDD4F2883CC54D6
:100D0000D240C35BDD4F2883CD54D240C25BDD4F60
:100D10002883CE54D240C15BDD4F2883CF54D240CC
:100D2000C05BDD4F2883C055D240CF5ADD4F98833A
:100D3000C155D240CE5ADD4F5883C255D240CD5A0C
:100D4000DD4F4883C355D240CC5ADD4F6883C4552C
:100D5000D240CB5ADD4F9883C555D240CA5ADD4F99
:100D60008883C655D240C95ADD4F3883C755D24013
:100D7000C85ADD4F3883C855D240C75ADD4F388333
:100D8000C955D240C65ADD4F8883CA55D240C55A8C
:100D9000DD4F9883CB55D240C45ADD4F9883CC5554
:100DA000D240C35ADD4F2883CD55D240C25ADD4FC1
:100DB0008883CE55D240C15ADD4F8883CF55D2406B
:100DC000C05ADD4F8883C056D240CF59DD4F88834B
:100DD000C156D240CE59DD4F2883C256D240CD599C
:100DE000DD4F9883C356D240CC59DD4F5883C4564B
:100DF000D240CB59DD4F4883C556D240CA59DD4F4A
:100E00006883C656D240C959DD4F9883C756D24031
:100E1000C859DD4F8883C856D240C759DD4F388343
:100E2000C956D240C659DD4F3883CA56D240C5593B
:100E3000DD4F3883CB56D240C459DD4F8883CC5622
:100E4000D240C359DD4F9883CD56D240C259DD4FB1
:100E50009883CE56D240C159DD4F2883CF56D24019
:100E6000C059DD4F8883C057D240CF58DD4F8883AB
:100E7000C157D240CE58DD4F8883C257D240CD589B
:100E8000DD4F8883C357D240CC58DD4F2883C457E9
:100E9000D240CB58DD4F9883C557D240CA58DD4F5A
:100EA0005883C657D240C958DD4F4883C757D240F0
:100EB000C858DD4F6883C857D240CF55DD4F3883BF
:100EC000C15AD240CE55DD4F3883C25AD240CD559B
:100ED000DD4F9883C35AD240CC55DD4F5883C45A56
:100EE000D240CB55DD4F4883C55AD240CA55DD4F5D
:100EF0007883C65AD240C955DD4F4883C75AD2407D
:100F0000C855DD4F5883C85AD240C755DD4F988326
:100F1000C95AD240C655DD4F2883CA5AD240C5555A
:100F2000DD4F2883CB5AD240C455DD4F2883CC5A9D
:100F3000D240C355DD4F2883CD5AD240C255DD4F34
:100F40002883CE5AD240C155DD4F2883CF5AD24094
:100F5000C055DD4F2883C05BD240CF54DD4F98830E
:100F6000C15BD240CE54DD4F5883C25BD240CD54DA
:100F7000DD4F4883C35BD240CC54DD4F6883C45BF4
:100F8000D240CB54DD4F9883C55BD240CA54DD4F6D
:100F90008883C65BD240C954DD4F3883C75BD240DB
:100FA000C854DD4F3883C85BD240C754DD4F388307
:100FB000C95BD240C654DD4F8883CA5BD240C5545A
:100FC000DD4F9883CB5BD240C454DD4F9883CC5B1C
:100FD000D240C354DD4F2883CD5BD240C254DD4F95
:100FE0008883CE5BD240C154DD4F8883CF5BD24033
:100FF000C054DD4F8883C05CD240CF53DD4F88831F
:10100000C15CD240CE53DD4F2883C25CD240CD5369
:10101000DD4F9883C35CD240CC53DD4F5883C45C12
:10102000D240CB53DD4F4883C55CD240CA53DD4F1D
:101030006883C65CD240C953DD4F9883C75CD240F9
:10104000C853DD4F8883C85CD240C753DD4F388317
:10105000C95CD240C653DD4F3883CA5CD240C55309
:10106000DD4F3883CB5CD240C453DD4F8883CC5CEA
:10107000D240C353DD4F9883CD5CD240C253DD4F85
:101080009883CE5CD240C153DD4F2883CF5CD240E1
:10109000C053DD4F8883C05DD240CF52DD4F88837F
:1010A000C15DD240CE52DD4F8883C25DD240CD5269
:1010B000DD4F8883C35DD240CC52DD4F2883C45DB1
:1010C000D240CB52DD4F9883C55DD240CA52DD4F2E
:1010D0005883C65DD240C952DD4F4883C75DD240B8
:1010E000C852DD4F6883C85DD240CF5FDC4F388384
:1010F000C150D340CE5FDC4F3883C250D340CD5F68
:10110000DC4F9883C350D340CC5FDC4F5883C4502E
:10111000D340CB5FDC4F4883C550D340CA5FDC4F20
:101120007883C650D340C95FDC4F4883C750D34053
:10113000C85FDC4F5883C850D340C75FDC4F9883EB
:10114000C950D340C65FDC4F2883CA50D340C55F27
:10115000DC4F2883CB50D340C45FDC4F2883CC5076
:10116000D340C35FDC4F2883CD50D340C25FDC4FF8
:101170002883CE50D340C15FDC4F2883CF50D3406B
:10118000C05FDC4F2883C051D340CF5EDC4F9883D3
:10119000C151D340CE5EDC4F5883C251D340CD5EA7
:1011A000DC4F4883C351D340CC5EDC4F6883C451CD
:1011B000D340CB5EDC4F9883C551D340CA5EDC4F31
:1011C0008883C651D340C95EDC4F3883C751D340B2
:1011D000C85EDC4F3883C851D340C75EDC4F3883CC
:1011E000C951D340C65EDC4F8883CA51D340C55E27
:1011F000DC4F9883CB51D340C45EDC4F9883CC51F5
:10120000D340C35EDC4F2883CD51D340C25EDC4F58
:101210008883CE51D340C15EDC4F8883CF51D34009
:10122000C05EDC4F8883C052D340CF5DDC4F8883E3
:10123000C152D340CE5DDC4F2883C252D340CD5D36
:10124000DC4F9883C352D340CC5DDC4F5883C452EB
:10125000D340CB5DDC4F4883C552D340CA5DDC4FE1
:101260006883C652D340C95DDC4F9883C752D340D0
:10127000C85DDC4F8883C852D340C75DDC4F3883DC
:10128000C952D340C65DDC4F3883CA52D340C55DD6
:10129000DC4F3883CB52D340C45DDC4F8883CC52C3
:1012A000D340C35DDC4F9883CD52D340C25DDC4F49
:1012B0009883CE52D340C15DDC4F2883CF52D340B8
:1012C000C05DDC4F8883C053D340CF5CDC4F888344
:1012D000C153D340CE5CDC4F8883C253D340CD5C36
:1012E000DC4F8883C353D340CC5CDC4F2883C4538A
:1012F000D340CB5CDC4F9883C553D340CA5CDC4FF2
:101300005883C653D340C95CDC4F4883C753D3408E
:10131000C85CDC4F6883C853D3408F016E013FE93E
:10132000C31A3CEFD30A0FB6F894DEBF0FBECDBF91
:1013300061E070E081E090E0A5D6E12CF12CF801AD
:10134000EE0DFF1D608181E094D69FEFE91AF90A46
:10135000A0E6EA16F10499F7BFEF23E234EF80E04C
:10136000B150204030408040D9F700C00000A0D6E6
:10137000005A1F4F0C151D05D9F680E090E0C05AA9
:10138000DC4F0FB6F894DEBF0FBECDBFDF91CF911B
:101390001F910F91FF90EF90DF90CF900895A0E004
:1013A000B0E0E4EDF9E0A0C2AE014B5F5F4FFA019F
:1013B00061917191AF01809186009091870002D078
:1013C000E2E0AEC2ABE0B0E0E7EEF9E07DC26C0176
:1013D0007B018A01FC0117821682838181FFBFC1D4
:1013E000CE0101963C01F6019381F70193FD8591B1
:1013F00093FF81917F01882309F4ADC1853239F4CF
:1014000093FD859193FF81917F01853221F4B6018F
:1014100090E0C0D1E8CF912C212C312CFFE1F315C5
:10142000D8F08B3279F038F4803279F08332A1F43D
:10143000232D20611DC08D3261F0803369F4232D8E
:10144000216016C0832D8260382EE32DE4603E2E8D
:101450002AC0F32DF8601DC037FC2DC020ED280FE9
:101460002A3040F08E32B9F436FC75C1232D206449
:10147000322E19C036FE06C08AE0989E200D112437
:10148000922E11C0EAE02E9E200D1124222EF32D63
:10149000F0623F2E08C08C3621F4832D8068382EF0
:1014A00002C0883641F4F70193FD859193FF819145
:1014B0007F018111B3CF982F9F7D9554933028F4ED
:1014C0000C5F1F4F9FE399830DC0833631F0833744
:1014D00071F0833509F055C020C0F80180818983FF
:1014E0000E5F1F4F88248394912C530112C0280152
:1014F000F2E04F0E511CF801A080B18036FE03C00F
:10150000692D70E002C06FEF7FEFC50138D14C014B
:101510008201F32DFF773F2E15C0280122E0420EF5
:10152000511CF801A080B18036FE03C0692D70E027
:1015300002C06FEF7FEFC50117D14C01F32DF068AA
:101540003F2E820133FC19C0822D90E08816990647
:10155000A0F4B60180E290E01DD12A94F5CFF50108
:1015600037FC859137FE81915F01B60190E012D181
:1015700021102A9421E0821A91088114910479F7AC
:10158000E1C0843611F0893639F5F80137FE07C01D
:1015900060817181828193810C5F1F4F08C06081DF
:1015A0007181072E000C880B990B0E5F1F4FF32DD6
:1015B000FF763F2E97FF09C09095809570956195B5
:1015C0007F4F8F4F9F4FF0683F2E2AE030E0A301FE
:1015D0001DD1882E861844C0853731F4232D2F7EE7
:1015E000B22E2AE030E025C0932D997FB92E8F3698
:1015F000C1F018F4883579F0AEC0803719F088371B
:1016000021F0A9C0E92FE061BE2EB4FE0DC0FB2D74
:10161000F460BF2E09C034FE0AC0292F2660B22E06
:1016200006C028E030E005C020E130E002C020E143
:1016300032E0F801B7FE07C0608171818281938139
:101640000C5F1F4F06C06081718180E090E00E5FEB
:101650001F4FA301DBD0882E8618FB2DFF773F2E6E
:1016600036FE0DC0232D2E7FA22E891458F434FE91
:101670000BC032FC09C0832D8E7EA82E05C0B82C6D
:10168000A32C03C0B82C01C0B92CA4FE0FC0FE01CE
:10169000E80DF11D8081803321F49A2D997EA92EC9
:1016A00009C0A2FE06C0B394B39404C08A2D867804
:1016B00009F0B394A3FC10C0A0FE06C0B21480F4DD
:1016C000280C922C9B180DC0B21458F4B60180E27D
:1016D00090E060D0B394F8CFB21418F42B1802C085
:1016E000982C212CA4FE0FC0B60180E390E052D0CC
:1016F000A2FE16C0A1FC03C088E790E002C088E506
:1017000090E0B6010CC08A2D867851F0A1FE02C08F
:101710008BE201C080E2A7FC8DE2B60190E03AD0F6
:10172000891430F4B60180E390E034D09A94F8CF75
:101730008A94F301E80DF11D8081B60190E02AD072
:101740008110F6CF222009F44ECEB60180E290E05F
:1017500021D02A94F7CFF6018681978102C08FEFBE
:101760009FEF2B96E2E1CCC0FC01059061507040E8
:101770000110D8F7809590958E0F9F1F0895FC015A
:101780006150704001900110D8F7809590958E0FB0
:101790009F1F08950F931F93CF93DF93FB01238126
:1017A00021FD03C08FEF9FEF2CC022FF16C04681A2
:1017B0005781248135814217530744F4A081B181B8
:1017C0009D012F5F3F4F318320838C93268137818A
:1017D0002F5F3F4F3783268314C08B01EC01FB0141
:1017E0000084F185E02D0995892BE1F6D801169644
:1017F0008D919C911797019617969C938E931697AF
:10180000CE01DF91CF911F910F910895FA01AA2780
:10181000283051F1203181F1E8946F936E7F6E5F33
:101820007F4F8F4F9F4FAF4FB1E03ED0B4E03CD0E1
:10183000670F781F891F9A1FA11D680F791F8A1FC4
:10184000911DA11D6A0F711D811D911DA11D20D02B
:1018500009F468943F912AE0269F11243019305DE5
:101860003193DEF6CF010895462F4770405D4193D6
:10187000B3E00FD0C9F7F6CF462F4F70405D4A3323
:1018800018F0495D31FD4052419302D0A9F7EACFEB
:10189000B4E0A6959795879577956795BA95C9F71A
:1018A00000976105710508959B01AC010A2E06940D
:1018B0005795479537952795BA95C9F7620F731FC6
:1018C000841F951FA01D08952F923F924F925F9203
:1018D0006F927F928F929F92AF92BF92CF92DF9240
:1018E000EF92FF920F931F93CF93DF93CDB7DEB7A5
:1018F000CA1BDB0B0FB6F894DEBF0FBECDBF099439
:101900002A88398848885F846E847D848C849B848F
:10191000AA84B984C884DF80EE80FD800C811B819D
:10192000AA81B981CE0FD11D0FB6F894DEBF0FBECC
:0A193000CDBFED010895F894FFCF3C
:10193A00436F6E74726F6C204C4344004E6F6B6938
:10194A006120313130300065646974696F6E00322C
:04195A0030323400F3
:00000001FF
