:1000000012C024C023C022C021C020C01FC01EC0F7
:100010001DC01CC01BC01AC019C018C017C016C014
:1000200015C014C013C011241FBECFE5D4E0DEBF3D
:10003000CDBF10E0A0E6B0E0E8E6F1E002C0059038
:100040000D92AA38B107D9F778D08CC0D9CF87B331
:100050008C6287BB81E58DB908958FB9779BFECF00
:100060000895611102C0AC9801C0AC9AC298F5DF46
:10007000C29A089584B3806384BBAD988FE39CE9F2
:100080000197F1F700C00000AD9A60E081E2E9DF7E
:1000900060E081EBE6DF60E084E0E3DF60E084E1E4
:1000A000E0DF60E080E2DDDF60E08CE0DACFCF937C
:1000B000DF93C8EFD1E061E080E0D3DF2197D9F78B
:1000C000DF91CF910895CF93C62F60E08068C9DF9C
:1000D00060E08C2F8064CF91C4CF0F931F93CF9398
:1000E000DF9395E0890280011124C0E0D0E0FE0199
:1000F000E00FF11FE054F04061E08081B2DF219613
:10010000C530D105A1F761E080E0DF91CF911F916B
:100110000F91A7CFCF93DF93EC018991882311F042
:10012000DCDFFBCFDF91CF910895A09AA8980895C6
:1001300095B381E0892785BB089589DF9BDFB7DF11
:10014000F4DF60E080E0BFDF83E890E0E3DFF0DF32
:100150002FEF83ED90E3215080409040E1F700C005
:080160000000F5CFF894FFCF79
:1001680000000000005F005F0000247E247E247CE5
:100178001211127C385454541838545454183C42B0
:0A01880042423C48454C4C4F000039
:00000001FF
