:1000000012C019C018C017C016C015C014C013C044
:1000100012C011C010C00FC00EC00DC00CC00BC06C
:100020000AC009C008C011241FBECFE5D4E0DEBF5E
:10003000CDBF54D06BC0E4CF87B38D6287BB81E561
:100040008DB908958FB9779BFECF0895611102C0D5
:10005000C29801C0C29AC098F5DFC09A089587B3CC
:10006000876087BBC1988FE39CE90197F1F700C0D7
:100070000000C19A60E081E2E9DF60E080ECE6DF49
:1000800060E084E0E3DF60E084E1E0DF60E080E204
:10009000DDDF60E08CE0DACFCF93DF93C8EFD1E013
:1000A00061E080E0D3DF2197D9F7DF91CF91089508
:1000B000CF93DF93C0E060E080E8C8DF60E08C2F82
:1000C0008064C4DFD4E561E08FEFC0DFD150D9F7A1
:1000D000CF5FC63081F7DF91CF910895ADDFBFDFED
:1000E000DBDFE6DF2FEF83ED90E32150804090408F
:1000F000E1F700C00000D0DF2FEF83ED90E3215047
:1001000080409040E1F700C00000EBCFF894FFCFB3
:00000001FF
